S01800005446545F494C49393438315F555446542E7372656369
S11300000C942B060C9448060C9448060C94480651
S11300100C9448060C9448060C9448060C94480624
S11300200C9448060C9448060C9448060C94480614
S11300300C9448060C9448060C9448060C94480604
S11300400C9448060C9448060C9448060C944806F4
S11300500C94480605A84CCDB2D44EB93836A90242
S11300600C50B9918688083CA6AAAA2ABE000000B2
S1130070803F1010205F000000000000000000001E
S1130080000000000000000000000000000000006C
S11300900000000000000000000007000F800F8037
S11300A00F800F800F80070007000000000007008A
S11300B007000700000000000E380E380E380E3816
S11300C006300000000000000000000000000000F6
S11300D000000000000000000C300C300C307FFEEB
S11300E07FFE0C300C300C300C307FFE7FFE0C3069
S11300F00C300C3000000000024002400FF81FF8E2
S11301001A401A401FF00FF8025802581FF81FF047
S11301100240024000000000000000000E100E30FB
S11301200E7000E001C0038007000E700C700870B0
S1130130000000000000000000000F00198019807A
S113014019800F000F080F9819F818F018E019F02B
S11301500F980000000000000000070007000700DF
S11301600E0000000000000000000000000000007D
S11301700000000000000000000000F001C0038047
S113018007000E000E000E000E000700038001C0E1
S113019000F000000000000000000F00038001C018
S11301A000E0007000700070007000E001C0038087
S11301B00F00000000000000000001801188099079
S11301C007E007E03FFC3FFC07E007E009901188E7
S11301D00180000000000000000000000000018019
S11301E0018001800FF00FF0018001800180000088
S11301F000000000000000000000000000000000FB
S113020000000000000000000000000007000700DC
S113021007000E00000000000000000000000000C5
S1130220000000001FF81FF800000000000000009C
S113023000000000000000000000000000000000BA
S1130240000000000000000000000000070007009C
S11302500700000000000000000000020006000E7D
S1130260001C0038007000E001C0038007000E008D
S11302701C0000000000000000000FF01C381C7877
S11302801CF81CF81DB81DB81F381F381E381C3840
S11302900FF00000000000000000018001800380D6
S11302A01F801F80038003800380038003800380FA
S11302B01FF000000000000000000FE01C701C385C
S11302C00038007000E001C0038007000E381C38BD
S11302D01FF800000000000000000FE01C701C3834
S11302E00038007003C003C0007000381C381C7054
S11302F00FE0000000000000000000E001E003E067
S113030006E00CE018E01FF81FF800E000E000E051
S113031003F800000000000000001FF81C001C008F
S11303201C001C001FE01FF0007800381C381C70F3
S11303300FE0000000000000000003E007000E00D2
S11303401C001C001FF01FF81C381C381C381C38FB
S11303500FF000000000000000001FFC1C1C1C1C0F
S11303601C1C001C0038007000E001C003800380E6
S1130370038000000000000000000FF01C381C384F
S11303801C381F3807E007E01CF81C381C381C38E0
S11303900FF000000000000000000FF01C381C38B3
S11303A01C381C381FF80FF800380038007000E0C3
S11303B007C00000000000000000000000000380EF
S11303C0038003800000000003800380038000009A
S11303D00000000000000000000000000000038096
S11303E00380038000000000038003800380070073
S11303F00000000000000000007000E001C0038065
S113040007000E001C001C000E000700038001C042
S113041000E0007000000000000000000000000088
S11304203FFC3FFC000000003FFC3FFC00000000DC
S113043000000000000000001C000E000700038004
S113044001C000E00070007000E001C003800700FC
S11304500E001C000000000003C00FF01E781838C6
S11304600038007000E001C001C00000000001C0BD
S113047001C001C0000000000FF81C1C1C1C1C1C47
S11304801C1C1CFC1CFC1CFC1CFC1C001C001C007C
S11304901FF007F800000000000003C007E00E7022
S11304A01C381C381C381C381FF81C381C381C38E5
S11304B01C3800000000000000001FF00E380E3849
S11304C00E380E380FF00FF00E380E380E380E3886
S11304D01FF0000000000000000007F00E381C3878
S11304E01C001C001C001C001C001C001C380E38C6
S11304F007F000000000000000001FE00E700E383E
S11305000E380E380E380E380E380E380E380E707F
S11305101FE000000000000000001FF80E180E0885
S11305200E000E300FF00FF00E300E000E080E18F5
S11305301FF800000000000000001FF80E180E084D
S11305400E000E300FF00FF00E300E000E000E00F5
S11305501F00000000000000000007F00E381C38E7
S11305601C381C001C001C001CF81C381C380E38DD
S113057007F800000000000000001C701C701C70D4
S11305801C701C701FF01FF01C701C701C701C7001
S11305901C7000000000000000000FE003800380D6
S11305A0038003800380038003800380038003802F
S11305B00FE0000000000000000001FC007000706B
S11305C000700070007000703870387038703870C7
S11305D00FE000000000000000001E380E380E700E
S11305E00EE00FC00F800F800FC00EE00E700E38AB
S11305F01E3800000000000000001F000E000E0066
S11306000E000E000E000E000E000E080E180E381E
S11306101FF800000000000000001C1C1E3C1F7C92
S11306201FFC1FFC1DDC1C9C1C1C1C1C1C1C1C1CFF
S11306301C1C00000000000000001C1C1C1C1E1CD4
S11306401F1C1F9C1DDC1CFC1C7C1C3C1C1C1C1C3F
S11306501C1C000000000000000003E007F00E383E
S11306601C1C1C1C1C1C1C1C1C1C1C1C0E3807F0F9
S113067003E000000000000000001FF00E380E38F8
S11306800E380E380FF00FF00E000E000E000E00A4
S11306901F00000000000000000003E00F780E3887
S11306A01C1C1C1C1C1C1C1C1C7C1CFC0FF80FF8A8
S11306B0003800FC0000000000001FF00E380E3867
S11306C00E380E380FF00FF00E700E380E380E384C
S11306D01E3800000000000000000FF01C381C3819
S11306E01C381C000FE007F000381C381C381C387C
S11306F00FF000000000000000001FFC19CC11C422
S113070001C001C001C001C001C001C001C001C0DD
S113071007F000000000000000001C701C701C703A
S11307201C701C701C701C701C701C701C701C7065
S11307300FE000000000000000001C701C701C7022
S11307401C701C701C701C701C701C700EE007C0A8
S1130750038000000000000000001C1C1C1C1C1C6A
S11307601C1C1C1C1C9C1C9C1C9C0FF80FF8077068
S1130770077000000000000000001C701C701C705A
S11307800EE007C00380038007C00EE01C701C70DD
S11307901C7000000000000000001C701C701C7025
S11307A01C701C700EE007C003800380038003806C
S11307B00FE000000000000000001FF81C3818388B
S11307C0107000E001C0038007000E081C181C38DC
S11307D01FF8000000000000000007F007000700F9
S11307E007000700070007000700070007000700CD
S11307F007F00000000000000000100018001C00BA
S11308000E000700038001C000E000700038001CE7
S11308100007000000000000000007F000700070F6
S11308200070007000700070007000700070007044
S113083007F0000000000000018003C007E00E7014
S11308401C38000000000000000000000000000050
S11308500000000000000000000000000000000094
S11308600000000000000000000000000000000084
S113087000007FFF7FFF000000001C001C00070039
S1130880070000000000000000000000000000005D
S11308900000000000000000000000000000000054
S11308A000000FE0007000700FF01C701C701C70D2
S11308B00FD800000000000000001E000E000E0013
S11308C00E000FF00E380E380E380E380E380E3873
S11308D01BF0000000000000000000000000000009
S11308E000000FE01C701C701C001C001C701C70AD
S11308F00FE0000000000000000000F8007000702D
S113090000700FF01C701C701C701C701C701C702C
S11309100FD80000000000000000000000000000EC
S113092000000FE01C701C701FF01C001C701C7079
S11309300FE0000000000000000003E007700770F3
S1130940070007001FE01FE007000700070007007B
S11309501FC00000000000000000000000000000B4
S113096000000FD81C701C701C701C700FF007F076
S113097000701C700FE0000000001E000E000E004E
S11309800E000EF00F380F380E380E380E380E38B1
S11309901E38000000000000000001C001C001C0BA
S11309A000000FC001C001C001C001C001C001C0EE
S11309B00FF80000000000000000007000700070DC
S11309C0000003F000700070007000700070007090
S11309D01C700CF007E0000000001E000E000E006A
S11309E00E000E380E700EE00FC00EE00E700E38C2
S11309F01E3800000000000000000FC001C001C04C
S1130A0001C001C001C001C001C001C001C001C0DA
S1130A100FF80000000000000000000000000000CB
S1130A2000001FF81C9C1C9C1C9C1C9C1C9C1C9C5B
S1130A301C9C0000000000000000000000000000FA
S1130A4000001FE01C701C701C701C701C701C705B
S1130A501C70000000000000000000000000000006
S1130A6000000FE01C701C701C701C701C701C704B
S1130A700FE0000000000000000000000000000083
S1130A8000001BF00E380E380E380E380E380FF0FA
S1130A900E000E001F000000000000000000000017
S1130AA000001FB038E038E038E038E038E01FE0FC
S1130AB000E000E001F00000000000000000000081
S1130AC000001EF00FF80F380E000E000E000E008E
S1130AD01F000000000000000000000000000000F3
S1130AE000000FE01C301C300F8003E018701870F9
S1130AF00FE00000000000000000000001000300FF
S1130B0007001FF0070007000700070007700770C1
S1130B1003E00000000000000000000000000000EE
S1130B2000001C701C701C701C701C701C701C70ED
S1130B300FD80000000000000000000000000000CA
S1130B4000001C701C701C701C701C700EE007C030
S1130B50038000000000000000000000000000000E
S1130B6000001C1C1C1C1C1C1C9C1C9C0FF80770EB
S1130B7007700000000000000000000000000000FA
S1130B8000001CE01CE00FC0078007800FC01CE0C1
S1130B901CE0000000000000000000000000000055
S1130BA000000E380E380E380E380E3807F003E009
S1130BB000E001C01F8000000000000000000000F1
S1130BC000001FE018E011C0038007000E201C6025
S1130BD01FE0000000000000000001F80380038013
S1130BE0038007001C001C000700038003800380AF
S1130BF001F800000000000001C001C001C001C0F4
S1130C0001C001C001C001C001C001C001C001C0D8
S1130C1001C001C00000000000001F8001C001C02D
S1130C2001C000E00038003800E001C001C001C08C
S1130C301F8000000000000000001F1C3B9C39DCEA
S1130C4038F8000000000000000000000000000070
S1130C5000000000000011241FBECFE5D4E0DEBF79
S1130C60CDBF10E0A0E6B0E0ECE2F7E202C00590F0
S1130C700D92AC36B107D9F720E0ACE6B0E001C084
S1130C801D92A238B207E1F70E944A060C9494130D
S1130C900C94000081E087BBC09A2FEF84E39CE0B2
S1130CA0215080409040E1F700C00000C09861E00E
S1130CB083E00E94D606C09A2FE38DE093E0215092
S1130CC080409040E1F700C000000E947A1082E763
S1130CD090E00E94A40A8FEF9FEF0E94BC0620E0E0
S1130CE030E040E050E060E070E080E690E00E9498
S1130CF08C0E2FE38DE093E0215080409040E1F78B
S1130D0000C00000C098FFCF85BB6BBB000090986B
S1130D100000909A00000895919A682F80E00E9444
S1130D2084060895919A0E94840608959198682FE4
S1130D3080E00E9484060895CF93DF93D62FC72FB7
S1130D400E9496066D2F8C2F0E949206DF91CF9100
S1130D500895962F929596959770887F982B9093E7
S1130D6077006C71660F660F660F4695469546953B
S1130D70462B4093780008959093770080937800F1
S1130D800895962F929596959770887F982B9093B7
S1130D9079006C71660F660F660F46954695469509
S1130DA0462B40937A001092760008959FEF9BBBE8
S1130DB095BB9BBB95BB939A919A929A909A949A5D
S1130DC0939A919A929A909A949AE3ECF9E03197D3
S1130DD0F1F700C000009298E3ECF9E03197F1F7E5
S1130DE000C00000929AE3ECF9E03197F1F700C0FB
S1130DF000009398823039F0833009F43FC2813087
S1130E0009F0F9C2F2C08FEE90E0A0E0B0E0809368
S1130E106E0090936F00A0937000B09371008FE305
S1130E2091E0A0E0B0E08093720090937300A093EF
S1130E307400B093750082E080936C0060936D0041
S1130E401092760010927B0061E070E080E00E94D6
S1130E509C0664EA78EA83E00E949C0660E070E005
S1130E608CE00E949C066CE078E08DE00E949C0679
S1130E7060E07BE28EE00E949C0667EB70E08EE10E
S1130E800E949C066FE37BE281E00E949C0660E086
S1130E9076E082E00E949C0660E070E080E10E94BF
S1130EA09C0660E770E681E10E949C0660E070E0C9
S1130EB085E00E949C0660E070E086E00E949C064B
S1130EC06CE17FEE86E10E949C0663E070E087E1BE
S1130ED00E949C0663E372E087E00E949C0660E047
S1130EE070E08BE00E949C0660E070E08FE00E945E
S1130EF09C0660E070E081E40E949C0660E070E083
S1130F0082E40E949C0660E070E088E40E949C06F3
S1130F106FE371E089E40E949C0660E070E08AE47B
S1130F200E949C0660E070E08BE40E949C0660E0F6
S1130F307FEE84E40E949C0660E070E085E40E94F9
S1130F409C066FE371E086E40E949C0667E077E00C
S1130F5080E30E949C0664E072E081E30E949C06A8
S1130F6064E072E082E30E949C0662E075E083E341
S1130F700E949C0667E075E084E30E949C0664E09E
S1130F8072E085E30E949C0664E072E086E30E94BE
S1130F909C0662E075E087E30E949C0662E073E0D1
S1130FA08AE30E949C0662E073E08BE30E949C0645
S1130FB060E070E083E20E949C0660E070E084E2FE
S1130FC00E949C0660E070E885E20E949C0660E056
S1130FD070E08FE40E949C0660E070E08EE40E9462
S1130FE09C0682E20E94960606C28FEE90E0A0E084
S1130FF0B0E080936E0090936F00A0937000B09364
S113100071008FE391E0A0E0B0E0809372009093D0
S11310107300A0937400B093750081E080936C001A
S113102060936D001092760010927B0060E070E88F
S113103085EE0E949C0661E070E080E00E949C06C0
S113104060E071E081E00E949C0660E077E082E06D
S11310500E949C0660E370E183E00E949C0660E0CD
S113106070E084E00E949C0662E072E088E00E94E6
S11310709C0660E070E089E00E949C0660E070E0FD
S11310808AE00E949C0660E070E08CE00E949C066E
S113109060E070E08DE00E949C0660E070E08FE00C
S11310A00E949C0660E070E080E10E949C0667E07C
S11310B070E081E10E949C0660E070E082E10E94A1
S11310C09C0660E070E083E10E949C0683ED90E35F
S11310D00197F1F700C0000060EB77E180E10E9426
S11310E09C0667E070E081E10E949C06E3ECF9E075
S11310F03197F1F700C000006AE371E082E10E94D9
S11311009C0683EC99E00197F1F700C0000060E0D1
S11311107AE183E10E949C066CE070E089E20E941F
S11311209C06E3ECF9E03197F1F700C0000060E0C1
S113113070E080E30E949C0665E075E081E30E9414
S11311409C0664E070E082E30E949C0666E070E026
S113115085E30E949C0667E077E086E30E949C0694
S113116065E071E087E30E949C0662E070E088E33A
S11311700E949C0667E077E089E30E949C0664E095
S113118077E08CE30E949C0667E078E08DE30E94A0
S11311909C0660E070E080E50E949C066FEE70E0C3
S11311A081E50E949C0660E070E082E50E949C0656
S11311B06FE371E083E50E949C0660E077E280E6DD
S11311C00E949C0661E070E081E60E949C0660E05B
S11311D070E08AE60E949C0660E070E081E20E9472
S11311E09C0660E070E080E20E949C0660E070E093
S11311F080E80E949C0660E070E081E80E949C0602
S113120060E070E082E80E949C0660E070E083E8A1
S11312100E949C0660E070E084E80E949C0660E006
S113122070E085E80E949C0660E170E080E90E941D
S11312309C0660E070E082E90E949C0663E070E036
S113124083E90E949C0660E171E085E90E949C06A6
S113125060E070E087E90E949C0660E070E088E945
S11312600E949C0663E771E087E00E949C0683ED80
S113127090E30197F1F700C00000BDC080E491E065
S1131280A0E0B0E080936E0090936F00A093700094
S1131290B093710080EE91E0A0E0B0E08093720022
S11312A090937300A0937400B093750083E08093CF
S11312B06C0060936D001092760010927B0081E1C7
S11312C00E949606E7E8F3E13197F1F700C00000C9
S11312D080ED0E94960687E00E948C0682E40E94BC
S11312E08C0688E10E948C0681ED0E94960680E0BF
S11312F00E948C0687E00E948C0680E10E948C0686
S113130082ED0E94960681E00E948C0682E00E9493
S11313108C0680EC0E94960680E10E948C068BE38A
S11313200E948C0680E00E948C0682E00E948C065B
S113133081E10E948C0685EC0E94960683E00E945F
S11313408C0688EC0E94960680E00E948C0682E35C
S11313500E948C0686E30E948C0685E40E948C061B
S113136086E00E948C0686E10E948C0687E30E9438
S11313708C0685E70E948C0687E70E948C0684E52C
S11313800E948C068CE00E948C0680E00E948C06F1
S113139086E30E9496068AE00E948C068AE30E94F5
S11313A0960685E50E948C068AE20E94960680E0F5
S11313B00E948C0680E00E948C0681E00E948C06CC
S11313C08FE30E948C068BE20E94960680E00E94C6
S11313D08C0680E00E948C0681E00E948C0680EEE0
S11313E00E948C068FE295E70197F1F700C0000098
S11313F089E20E949606939A4FEF6FEF8FEF0E9457
S1131400A90640E060E080E00E94C10610927D00E1
S113141010927C000895CF92DF92EF92FF920F9387
S11314201F93CF93DF93EC01E62EF72E8A01C22E91
S1131430D32E80916D00813089F480917200909157
S11314407300AC014C1B5D0B801B910B022F132FFF
S1131450C42ED52EC62FD72FE82EF92E80916C00DE
S1131460813011F1823009F03FC0102F0027B801FC
S11314706C0F7D1F84E40E949C066E2D7F2D85E4F5
S11314800E949C066C2D7D2D86E40E949C06BE0164
S11314908EE40E949C066E2D7F2D8FE40E949C0694
S11314A082E20E94960620C06C2F7D2F80E20E946B
S11314B09C066E2D7F2D81E20E949C066C2F7D2F51
S11314C080E50E949C066E2D7F2D82E50E949C067D
S11314D0B80181E50E949C066C2D7D2D83E50E9458
S11314E09C0682E20E949606DF91CF911F910F9194
S11314F0FF90EF90DF90CF90089580916D0081115F
S11315000FC0209172003091730040916E00509191
S11315106F0060E070E080E090E00E940B0A0895A4
S113152020916E0030916F004091720050917300D1
S113153060E070E080E090E00E940B0A0895682F5C
S1131540892F0E949206089590937D0080937C00D9
S1131550FC01249120937E003196E491E0937F0076
S1131560FC013296E491E0938000FC01339684916F
S11315708093810008952F923F924F925F926F92D1
S11315807F928F929F92AF92BF92CF92DF92EF920F
S1131590FF920F931F93CF93DF93CDB7DEB72A97B4
S11315A00FB6F894DEBF0FBECDBFD82E7E836D83F9
S11315B058874F8393988091760081115BC1809105
S11315C06D0081119FC00F2EFFE7AF2EF0E0BF2EFC
S11315D0F02DD5018C919A01280F311D215031092C
S11315E00F2EFEE7EF2EF0E0FF2EF02DF7018081A5
S11315F04D815E81480F511D415051096F8178859D
S11316008D819E810E940B0AD7019C919695969597
S11316109695F5018081989FC00111242D2D30E00D
S113162040918000241B3109289F1001299F300C10
S1131630389F300C1124F4E02F0E311C18161906B3
S11316400CF0B1C1C12CD12C0F2EF9E7AF2EF0E074
S1131650BF2EF02D0F2EF7E76F2EF0E07F2EF02D2A
S11316600F2EF8E74F2EF0E05F2EF02DACE7B0E040
S1131670ED91FC91E20DF31DE49127E030E03A8313
S11316802983EE2EF12CC701098002C09595879518
S11316900A94E2F780FF0BC0D3011C9100E0F20131
S11316A080819801282BC9010E949F0A0BC0D50193
S11316B09C90812CEAE7F0E080819401282BC901F9
S11316C00E949F0A49815A81415051095A83498392
S11316D04F3F5F4FC1F69FEF291A390AAFEFCA1A7D
S11316E0DA0AEEE7F0E09081969596959695AFE745
S11316F0B0E08C91989FC0011124C816D9060CF44F
S1131700B5CF51C120917E00622F6695669566958E
S113171070E030917F00369FC001379F900D1124F7
S1131720ED2DF0E030918000E31BF109E89FA0016A
S1131730E99F500DF89F500D1124FA013496FA8355
S1131740E983181619060CF02EC11C821B820F2E79
S1131750F9E78F2EF0E09F2EF02D0F2EFAE74F2E93
S1131760F0E05F2EF02D0F2EF7E72F2EF0E03F2E46
S1131770F02D0F2EF8E7AF2EF0E0BF2EF02D8701ED
S11317808B819C810E9455134F815885640F751F6E
S11317904D815E81420F511D415051099B018D8144
S11317A09E810E940B0AAEE7B0E0CC90C694C6942A
S11317B0C694D12CB1E0CB1AD1080AF43BC01A87E5
S11317C0098789819A818C0D9D1DACE7B0E0ED916C
S11317D0FC91E80FF91FE49000E010E0F12CC70140
S11317E0002E02C0959587950A94E2F780FF0BC0FE
S11317F0D1017C90612CF50180819301282BC901D2
S11318000E949F0A0CC0D401BC91BA871986F201C8
S1131810808129853A85282BC9010E949F0A0F5F80
S11318201F4F08301105D9F651E0C51AD10848F602
S113183009851A85AEE7B0E02C91622F669566950E
S1131840669570E0E981FA81E60FF71FFA83E98370
S11318504B815C81460F571F5C834B8330917F0023
S1131860369FC001379F900D1124481759070CF477
S113187087CF99C080917F0090E06D2D70E020911A
S11318808000621B710920917E002695269526957D
S1131890289FA001299F500D1124649F9001659FEA
S11318A0300D749F300D1124190154E0250E311CA4
S11318B0181619060CF077C06F8078841A82198282
S11318C08D818B839E819D835AC0C501820D931D9A
S11318D0ACE7B0E0ED91FC91E80FF91FC490C401AE
S11318E007E010E0D12C18870F838C010F5F1F4F86
S11318F09701A801B3010E940B0AC6010F8002C020
S1131900959587950A94E2F780FF0CC0E7E7F0E02D
S11319105080412CA8E7B0E08C91F201E82BCF0174
S11319200E949F0A2F8138852150310938872F83DF
S1131930C8012F3F3F4FC9F65FEFA51AB50AAEE7BE
S1131940B0E08C9186958695869590E0B8E08B0EF4
S1131950911CA816B9060CF4B8CF280E391EE981DB
S1131960FA813196FA83E983FFEF6F1A7F0A809137
S11319707F0090E029813A8128173907A4F4AEE763
S1131980B0E08C9186958695869590E01816190698
S113199024F78B809D80C12CD12C7301BFEFEB1AEF
S11319A0FB0A560192CF939A0E947D0A2A960FB69B
S11319B0F894DEBF0FBECDBFDF91CF911F910F9181
S11319C0FF90EF90DF90CF90BF90AF909F908F905B
S11319D07F906F905F904F903F902F9008952F923B
S11319E03F924F925F926F927F928F929F92AF92AB
S11319F0BF92CF92DF92EF92FF920F931F93CF93F8
S1131A00DF93CDB7DEB7AD970FB6F894DEBF0FBE48
S1131A10CDBFD82E7B015A013C8B2B8BB801882774
S1131A2077FD8095982F0E94D31129E23CE54FE879
S1131A305CE30E94981268A779A78AA79BA793984A
S1131A4060917F004D2D50E080918000481B51092A
S1131A5020917E00269526952695269F9001112497
S1131A60429FC001439F900D529F900D11249C01F1
S1131A702C5F3F4F3EA32DA36111D5C031C189A175
S1131A809AA1ADA1BEA18A0F9B1FACE7B0E0ED9176
S1131A90FC91E80FF91FE4912BA03CA007E010E0B3
S1131AA02E2F30E03A832983AEE7B0E08C91EB89A6
S1131AB0FC898E9FB0018F9F700D1124620D731DE0
S1131AC0882777FD8095982F0E94D3116B017C01A4
S1131AD06D897E898F89988D0E94D3114B015C0199
S1131AE02B813C814D815E81C701B6010E94981211
S1131AF0BB85AC85ED857E842B2F3A2F4E2F572D39
S1131B000E9438119B01AC01C501B4010E94391136
S1131B100E94A0114B015C017DA76CA7698D7A8D91
S1131B208B8D9C8D0E94D3112B013C012F81388514
S1131B3049855A85C701B6010E9498129B01AC01E0
S1131B40BF85A889E989FA886B2F7A2F8E2F9F2D5C
S1131B500E9439119B01AC01C301B2010E943911E9
S1131B600E94A0119B012F5F3F4FA4014F5F5F4F65
S1131B70C4010E940B0A89819A81002E02C09595A6
S1131B8087950A94E2F780FF0FC0A7E7B0E0BC9105
S1131B90BE8F1D8EE8E7F0E080812D8D3E8D282BD1
S1131BA0C9010E949F0A13C0A6E7B0E08C9181117D
S1131BB00EC0E9E7F0E0F081F8A31F8EAAE7B0E0D9
S1131BC08C91EF8DF8A1E82BCF010E949F0AFFEFC3
S1131BD02F1A3F0A0150110908F066CF89A19AA172
S1131BE001969AA389A3AEE7B0E08C918695869579
S1131BF0869590E0EBA1FCA13896FCA3EBA329A168
S1131C003AA1281739070CF43ACFADA1BEA1A80F09
S1131C10B91FBEA3ADA3BFA1BF5FBFA380917F00C7
S1131C20B817A0F05DC01FA2C701AA2797FDA09511
S1131C30BA2F8D8B9E8BAF8BB88FC501AA2797FDCA
S1131C40A095BA2F898F9A8FAB8FBC8FAEE7B0E087
S1131C508C9186958695869590E018161906ACF6B3
S1131C6058A549A53AA52BA5652F742F832F922F2C
S1131C700E949D116B837C838D839E83BFA16B2FF8
S1131C8070E080E090E00E94D3116B017C0158A5C4
S1131C9049A53AA52BA5652F742F832F922F0E9457
S1131CA0FB126F83788789879A879B01AC01C701F0
S1131CB0B6010E9498126B877C878D879E87A70147
S1131CC096016B817C818D819E810E9498126F8721
S1131CD0788B898B9A8B1CA21BA21AA219A2CFCE35
S1131CE0939A0E947D0AAD960FB6F894DEBF0FBE9C
S1131CF0CDBFDF91CF911F910F91FF90EF90DF90B7
S1131D00CF90BF90AF909F908F907F906F905F9097
S1131D104F903F902F9008954F925F926F927F92D1
S1131D208F929F92AF92BF92CF92DF92EF92FF92E7
S1131D300F931F93CF93DF935B014A016901E82F4F
S1131D40F92FDF010D900020E9F711973D016E1A7C
S1131D507F0A20916D0021113BC06F3027E272078A
S1131D6081F4A0906E00B0906F00EFEFAE1ABE0A3F
S1131D7040917E00469D9001479D300D1124A21A8A
S1131D80B30AFEE0AF16F7E2BF0609F05AC040916D
S1131D906E0050916F0060917000709171004F5F00
S1131DA05F4F6F4F7F4F20917E00269D8001279DBE
S1131DB0100D1124222717FD2095322F401B510BA3
S1131DC0620B730B76956795579547955A0139C001
S1131DD06F3027E2720781F4A0907200B090730014
S1131DE0EFEFAE1ABE0A40917E00469D9001479DDA
S1131DF0300D1124A21AB30AFEE0AF16F7E2BF06B3
S1131E0001F54091720050917300609174007091DB
S1131E1075004F5F5F4F6F4F7F4F20917E00269D6F
S1131E208001279D100D1124222717FD2095322FA4
S1131E30401B510B620B730B76956795579547952D
S1131E405A01161417045CF5E82EF92EC0E0D0E010
S1131E500F2EFEE74F2EF0E05F2EF02DC114D104BB
S1131E6079F4F20180818C9FB0018D9F700D112453
S1131E706A0D7B1DA401F70180810E94BB0A08C082
S1131E8086019E01A401B501F70180810E94EF0C37
S1131E902196FFEFEF1AFF0A6C167D06F9F6DF9123
S1131EA0CF911F910F91FF90EF90DF90CF90BF9053
S1131EB0AF909F908F907F906F905F904F90089518
S1131EC0CF92DF92EF92FF920F931F9385BB6BBB70
S1131ED069017A01689413F8F694E794D794C79447
S1131EE01694D1F7C114D104E104F10409F43CC0FF
S1131EF0E0E0F0E090980000909A90980000909AAA
S1131F0090980000909A90980000909A9098000001
S1131F10909A90980000909A90980000909A9098C7
S1131F200000909A90980000909A90980000909ADF
S1131F3090980000909A90980000909A90980000D1
S1131F40909A90980000909A90980000909A909897
S1131F500000909A3196CF01A0E0B0E08C159D0569
S1131F60AE05BF0508F4C6CF89019A010F70112789
S1131F7022273327011511052105310599F00F5F3B
S1131F801F4F2F4F3F4F60E070E090980000909AF1
S1131F906F5F7F4FCB01A0E0B0E080179107A207ED
S1131FA0B30798F31F910F91FF90EF90DF90CF90BC
S1131FB008950F931F9385BB8A019B01689413F8BE
S1131FC036952795179507951694D1F701151105A0
S1131FD02105310509F46CC0E0E0F0E090980000C0
S1131FE0909A90980000909A90980000909A9098F7
S1131FF00000909A90980000909A90980000909A0F
S113200090980000909A90980000909A9098000000
S1132010909A90980000909A90980000909A9098C6
S11320200000909A90980000909A90980000909ADE
S113203090980000909A90980000909A90980000D0
S1132040909A90980000909A90980000909A909896
S11320500000909A90980000909A90980000909AAE
S113206090980000909A90980000909A90980000A0
S1132070909A90980000909A90980000909A909866
S11320800000909A90980000909A90980000909A7E
S113209090980000909A90980000909A3196CF0101
S11320A0A0E0B0E080179107A207B30708F496CF29
S11320B04F7055276627772741155105610571052E
S11320C0B1F04F5F5F4F6F4F7F4F20E030E090984B
S11320D00000909A90980000909A2F5F3F4FC9019A
S11320E0A0E0B0E084179507A607B70780F31F9117
S11320F00F910895AF92BF92CF92DF92EF92FF9229
S11321000F931F93CF93DF9393980E947D0A919A24
S113211080917B00811127C080917200909173009F
S1132120A0917400B09175009C01AD012F5F3F4FE9
S11321304F4F5F4F80916E0090916F00A09170009F
S1132140B0917100BC01CD016F5F7F4F8F4F9F4FE6
S11321500E9445139B01AC0160E070E080E090E0D8
S11321600E94600F79C0883019F1809172009091BB
S11321707300A0917400B09175009C01AD012F5FB4
S11321803F4F4F4F5F4F80916E0090916F00A09131
S11321907000B0917100BC01CD016F5F7F4F8F4F14
S11321A09F4F0E944513672B682B692B31F554C050
S11321B08091720090917300A0917400B0917500A9
S11321C09C01AD012F5F3F4F4F4F5F4F80916E00D9
S11321D090916F00A0917000B0917100BC01CD018D
S11321E06F5F7F4F8F4F9F4F0E944513AB01BC0120
S11321F080E090E00E94D90F2FC0C0E0D0E00F2E05
S1132200F2E7AF2EF0E0BF2EF02D0EE610E060E016
S113221080E00E94840621966E01E12CF12CF501E8
S113222080819181A281B3819C01AD012F5F3F4FD9
S11322304F4F5F4FF80180819181A281B381BC012E
S1132240CD016F5F7F4F8F4F9F4F0E944513C6167E
S1132250D706E806F906D8F2939ADF91CF911F9139
S11322600F91FF90EF90DF90CF90BF90AF900895C3
S11322705058BB27AA270ED010C1D9D030F0DED0D9
S113228020F031F49F3F11F41EF4CEC00EF4E0951B
S1132290E7FBC4C0E92F23D180F3BA1762077307A1
S11322A08407950718F071F49EF53BC10EF4E09590
S11322B00B2EBA2FA02D0B01B90190010C01CA01FC
S11322C0A0011124FF27591B99F0593F50F4503EA7
S11322D068F11A16F040A22F232F342F4427585F99
S11322E0F3CF469537952795A795F0405395C9F7B1
S11322F07EF41F16BA0B620B730B840BBAF0915069
S1132300A1F0FF0FBB1F661F771F881FC2F70EC007
S1132310BA0F621F731F841F48F4879577956795DA
S1132320B795F7959E3F08F0B3CF9395880F08F0C3
S11323309927EE0F97958795089588D0E395BEC0A9
S113234004D06894B111EEC00895D1D088F09F579D
S113235090F0B92F9927B751A0F0D1F0660F771FED
S1132360881F991F1AF0BA95C9F712C0B13081F0CD
S1132370D8D0B1E00895D5C0672F782F8827B85FEB
S113238039F0B93FCCF3869577956795B395D9F72E
S11323903EF490958095709561957F4F8F4F9F4F38
S11323A00895E89409C097FB3EF490958095709544
S11323B061957F4F8F4F9F4F9923A9F0F92F96E98D
S11323C0BB279395F695879577956795B795F11102
S11323D0F8CFFAF4BB0F11F460FF1BC06F5F7F4F9F
S11323E08F4F9F4F16C0882311F096E911C07723B1
S11323F021F09EE8872F762F05C0662371F096E8BA
S1132400862F70E060E02AF09A95660F771F881F88
S1132410DAF7880F9695879597F9089597F99F6746
S113242080E870E060E008959FEF80EC0895002458
S11324300A941616170618060906089500240A9425
S113244012161306140605060895EECF50D0E8F3CD
S1132450E894E0E0BB279F57F0F02AED3FE049EC19
S113246006C0EE0FBB0F661F771F881F28F0B23A15
S113247062077307840728F0B25A620B730B840B4C
S1132480E3959A9572F7803830F49A95BB0F661FDE
S1132490771F881FD2F79048B6C0092E0394000C0A
S11324A011F4882352F0BB0F40F4BF2B11F460FFEA
S11324B004C06F5F7F4F8F4F9F4F0895EF93E0FFEE
S11324C006C0A2EA2AED3FE049EC5FEBE3DEE5DF7C
S11324D00F90039401FC9058E4E5F0E0A0C057FD90
S11324E09058440F551F59F05F3F71F04795880F7E
S11324F097FB991F61F09F3F79F087950895121615
S113250013061406551FF2CF4695F1DF08C01616C0
S113251017061806991FF1CF869571056105089471
S11325200895E894BB2766277727CB0197F9089588
S11325300BD0B3CF7CDF28F081DF18F0952309F0AE
S11325406DCF72CF1124EECFCADFA0F3959FD1F3E4
S1132550950F50E0551F629FF001729FBB27F00D4D
S1132560B11D639FAA27F00DB11DAA1F649F6627A2
S1132570B00DA11D661F829F2227B00DA11D621FF1
S1132580739FB00DA11D621F839FA00D611D221FAB
S1132590749F3327A00D611D231F849F600D211D8F
S11325A0822F762F6A2F11249F5750408AF0E1F032
S11325B088234AF0EE0FFF1FBB1F661F771F881F7B
S11325C091505040A9F79E3F510570F027CFAACFF4
S11325D05F3FECF3983EDCF3869577956795B79566
S11325E0F795E7959F5FC1F7FE2B880F911D969590
S11325F0879597F908959F9329DF0F9007FCEE5F65
S11326005DCF9F3F31F0915020F487957795679582
S1132610B795880F911D9695879597F908959F937F
S11326208F937F936F93FF93EF939B01AC0180DFB4
S1132630EF91FF9105D02F913F914F915F9178CF0A
S1132640DF93CF931F930F93FF92EF92DF927B015F
S11326508C01689405C0DA2EEF0176DFFE01E89460
S1132660A5912591359145915591AEF3EF0112DE77
S1132670FE019701A801DA9479F7DF90EF90FF90BB
S11326800F911F91CF91DF910895DB018F939F9359
S11326900E946913BF91AF91A29F800D911DA39FCA
S11326A0900DB29F900D1124089597FB072E16F4F8
S11326B0009407D077FD09D00E94741307FC05D05D
S11326C03EF4909581959F4F0895709561957F4F45
S11326D008950E948813A59F900DB49F900DA49F08
S11326E0800D911D11240895AA1BBB1B51E107C045
S11326F0AA1FBB1FA617B70710F0A61BB70B881F8E
S1132700991F5A95A9F780959095BC01CD0108951C
S1132710A29FB001B39FC001A39F01D0B29F700DCF
S10F2720811D1124911D0895F894FFCF31
S10F272C46696C6C2053637265656E0096
S9030000FC
